{
  "contractName": "EthPriceOracle",
  "abi": [
    {
      "inputs": [],
      "stateMutability": "nonpayable",
      "type": "constructor"
    },
    {
      "anonymous": false,
      "inputs": [
        {
          "indexed": false,
          "internalType": "address",
          "name": "oracleAddress",
          "type": "address"
        }
      ],
      "name": "AddOracleEvent",
      "type": "event"
    },
    {
      "anonymous": false,
      "inputs": [
        {
          "indexed": false,
          "internalType": "address",
          "name": "callerAddress",
          "type": "address"
        },
        {
          "indexed": false,
          "internalType": "uint256",
          "name": "id",
          "type": "uint256"
        }
      ],
      "name": "GetLatestEthPriceEvent",
      "type": "event"
    },
    {
      "anonymous": false,
      "inputs": [
        {
          "indexed": false,
          "internalType": "address",
          "name": "oracleAddress",
          "type": "address"
        }
      ],
      "name": "RemoveOracleEvent",
      "type": "event"
    },
    {
      "anonymous": false,
      "inputs": [
        {
          "indexed": true,
          "internalType": "bytes32",
          "name": "role",
          "type": "bytes32"
        },
        {
          "indexed": true,
          "internalType": "bytes32",
          "name": "previousAdminRole",
          "type": "bytes32"
        },
        {
          "indexed": true,
          "internalType": "bytes32",
          "name": "newAdminRole",
          "type": "bytes32"
        }
      ],
      "name": "RoleAdminChanged",
      "type": "event"
    },
    {
      "anonymous": false,
      "inputs": [
        {
          "indexed": true,
          "internalType": "bytes32",
          "name": "role",
          "type": "bytes32"
        },
        {
          "indexed": true,
          "internalType": "address",
          "name": "account",
          "type": "address"
        },
        {
          "indexed": true,
          "internalType": "address",
          "name": "sender",
          "type": "address"
        }
      ],
      "name": "RoleGranted",
      "type": "event"
    },
    {
      "anonymous": false,
      "inputs": [
        {
          "indexed": true,
          "internalType": "bytes32",
          "name": "role",
          "type": "bytes32"
        },
        {
          "indexed": true,
          "internalType": "address",
          "name": "account",
          "type": "address"
        },
        {
          "indexed": true,
          "internalType": "address",
          "name": "sender",
          "type": "address"
        }
      ],
      "name": "RoleRevoked",
      "type": "event"
    },
    {
      "anonymous": false,
      "inputs": [
        {
          "indexed": false,
          "internalType": "uint256",
          "name": "ethPrice",
          "type": "uint256"
        },
        {
          "indexed": false,
          "internalType": "address",
          "name": "callerAddress",
          "type": "address"
        }
      ],
      "name": "SetLatestEthPriceEvent",
      "type": "event"
    },
    {
      "anonymous": false,
      "inputs": [
        {
          "indexed": false,
          "internalType": "uint256",
          "name": "threshold",
          "type": "uint256"
        }
      ],
      "name": "SetThresholdEvent",
      "type": "event"
    },
    {
      "inputs": [],
      "name": "DEFAULT_ADMIN_ROLE",
      "outputs": [
        {
          "internalType": "bytes32",
          "name": "",
          "type": "bytes32"
        }
      ],
      "stateMutability": "view",
      "type": "function",
      "constant": true
    },
    {
      "inputs": [],
      "name": "ORACLE_ROLE",
      "outputs": [
        {
          "internalType": "bytes32",
          "name": "",
          "type": "bytes32"
        }
      ],
      "stateMutability": "view",
      "type": "function",
      "constant": true
    },
    {
      "inputs": [],
      "name": "OWNER_ROLE",
      "outputs": [
        {
          "internalType": "bytes32",
          "name": "",
          "type": "bytes32"
        }
      ],
      "stateMutability": "view",
      "type": "function",
      "constant": true
    },
    {
      "inputs": [
        {
          "internalType": "bytes32",
          "name": "role",
          "type": "bytes32"
        }
      ],
      "name": "getRoleAdmin",
      "outputs": [
        {
          "internalType": "bytes32",
          "name": "",
          "type": "bytes32"
        }
      ],
      "stateMutability": "view",
      "type": "function",
      "constant": true
    },
    {
      "inputs": [
        {
          "internalType": "bytes32",
          "name": "role",
          "type": "bytes32"
        },
        {
          "internalType": "address",
          "name": "account",
          "type": "address"
        }
      ],
      "name": "grantRole",
      "outputs": [],
      "stateMutability": "nonpayable",
      "type": "function"
    },
    {
      "inputs": [
        {
          "internalType": "bytes32",
          "name": "role",
          "type": "bytes32"
        },
        {
          "internalType": "address",
          "name": "account",
          "type": "address"
        }
      ],
      "name": "hasRole",
      "outputs": [
        {
          "internalType": "bool",
          "name": "",
          "type": "bool"
        }
      ],
      "stateMutability": "view",
      "type": "function",
      "constant": true
    },
    {
      "inputs": [
        {
          "internalType": "bytes32",
          "name": "role",
          "type": "bytes32"
        },
        {
          "internalType": "address",
          "name": "account",
          "type": "address"
        }
      ],
      "name": "renounceRole",
      "outputs": [],
      "stateMutability": "nonpayable",
      "type": "function"
    },
    {
      "inputs": [
        {
          "internalType": "bytes32",
          "name": "role",
          "type": "bytes32"
        },
        {
          "internalType": "address",
          "name": "account",
          "type": "address"
        }
      ],
      "name": "revokeRole",
      "outputs": [],
      "stateMutability": "nonpayable",
      "type": "function"
    },
    {
      "inputs": [
        {
          "internalType": "bytes4",
          "name": "interfaceId",
          "type": "bytes4"
        }
      ],
      "name": "supportsInterface",
      "outputs": [
        {
          "internalType": "bool",
          "name": "",
          "type": "bool"
        }
      ],
      "stateMutability": "view",
      "type": "function",
      "constant": true
    },
    {
      "inputs": [
        {
          "internalType": "address",
          "name": "_oracle",
          "type": "address"
        }
      ],
      "name": "addOracle",
      "outputs": [],
      "stateMutability": "nonpayable",
      "type": "function"
    },
    {
      "inputs": [
        {
          "internalType": "address",
          "name": "_oracle",
          "type": "address"
        }
      ],
      "name": "removeOracle",
      "outputs": [],
      "stateMutability": "nonpayable",
      "type": "function"
    },
    {
      "inputs": [
        {
          "internalType": "uint256",
          "name": "_threshold",
          "type": "uint256"
        }
      ],
      "name": "setThreshold",
      "outputs": [],
      "stateMutability": "nonpayable",
      "type": "function"
    },
    {
      "inputs": [],
      "name": "getLatestEthPrice",
      "outputs": [
        {
          "internalType": "uint256",
          "name": "",
          "type": "uint256"
        }
      ],
      "stateMutability": "nonpayable",
      "type": "function"
    },
    {
      "inputs": [
        {
          "internalType": "uint256",
          "name": "_ethPrice",
          "type": "uint256"
        },
        {
          "internalType": "address",
          "name": "_callerAddress",
          "type": "address"
        },
        {
          "internalType": "uint256",
          "name": "_id",
          "type": "uint256"
        }
      ],
      "name": "setLatestEthPrice",
      "outputs": [],
      "stateMutability": "nonpayable",
      "type": "function"
    }
  ],
  "bytecode": "0x608060405260006001556103e8600255600060035560006004553480156200002657600080fd5b50620000597fb19546dff01e856fb3f010c267a7b1c60363cf8a4664e21cc89c26224620214e336200005f60201b60201c565b620001c2565b6200007182826200015060201b60201c565b6200014c57600160008084815260200190815260200160002060000160008373ffffffffffffffffffffffffffffffffffffffff1673ffffffffffffffffffffffffffffffffffffffff16815260200190815260200160002060006101000a81548160ff021916908315150217905550620000f1620001ba60201b60201c565b73ffffffffffffffffffffffffffffffffffffffff168173ffffffffffffffffffffffffffffffffffffffff16837f2f8788117e7eff1d82e926ec794901d17c78024a50270940304540a733656f0d60405160405180910390a45b5050565b600080600084815260200190815260200160002060000160008373ffffffffffffffffffffffffffffffffffffffff1673ffffffffffffffffffffffffffffffffffffffff16815260200190815260200160002060009054906101000a900460ff16905092915050565b600033905090565b611e7980620001d26000396000f3fe608060405234801561001057600080fd5b50600436106100ea5760003560e01c8063960bfe041161008c578063d547741f11610066578063d547741f14610249578063df5dd1a514610265578063e58378bb14610281578063fdc85fc41461029f576100ea565b8063960bfe04146101f3578063a217fddf1461020f578063cf642f1f1461022d576100ea565b80632f2ff15d116100c85780632f2ff15d1461016d57806330c0b9ec1461018957806336568abe146101a757806391d14854146101c3576100ea565b806301ffc9a7146100ef57806307e2cea51461011f578063248a9ca31461013d575b600080fd5b61010960048036038101906101049190611313565b6102bb565b604051610116919061135b565b60405180910390f35b610127610335565b604051610134919061138f565b60405180910390f35b610157600480360381019061015291906113d6565b610359565b604051610164919061138f565b60405180910390f35b61018760048036038101906101829190611461565b610378565b005b6101916103a1565b60405161019e91906114ba565b60405180910390f35b6101c160048036038101906101bc9190611461565b610468565b005b6101dd60048036038101906101d89190611461565b6104eb565b6040516101ea919061135b565b60405180910390f35b61020d60048036038101906102089190611501565b610555565b005b610217610601565b604051610224919061138f565b60405180910390f35b6102476004803603810190610242919061152e565b610608565b005b610263600480360381019061025e9190611461565b61099d565b005b61027f600480360381019061027a9190611581565b6109c6565b005b610289610b15565b604051610296919061138f565b60405180910390f35b6102b960048036038101906102b49190611581565b610b39565b005b60007f7965db0b000000000000000000000000000000000000000000000000000000007bffffffffffffffffffffffffffffffffffffffffffffffffffffffff1916827bffffffffffffffffffffffffffffffffffffffffffffffffffffffff1916148061032e575061032d82610ccc565b5b9050919050565b7f68e79a7bf1e0bc45d0a330c573bc367f9cf464fd326078812f301165fbda4ef181565b6000806000838152602001908152602001600020600101549050919050565b61038182610359565b6103928161038d610d36565b610d3e565b61039c8383610ddb565b505050565b6000600160008154809291906103b6906115dd565b9190505550600060025442336001546040516020016103d79392919061168f565b6040516020818303038152906040528051906020012060001c6103fa91906116fb565b905060016005600083815260200190815260200160002060006101000a81548160ff0219169083151502179055507f3d50a0c24e97813f35595d2f1f37dbf421d5e97f37abd4e222853e9b9c82c8d5338260405161045992919061173b565b60405180910390a18091505090565b610470610d36565b73ffffffffffffffffffffffffffffffffffffffff168173ffffffffffffffffffffffffffffffffffffffff16146104dd576040517f08c379a00000000000000000000000000000000000000000000000000000000081526004016104d4906117e7565b60405180910390fd5b6104e78282610ebb565b5050565b600080600084815260200190815260200160002060000160008373ffffffffffffffffffffffffffffffffffffffff1673ffffffffffffffffffffffffffffffffffffffff16815260200190815260200160002060009054906101000a900460ff16905092915050565b61057f7fb19546dff01e856fb3f010c267a7b1c60363cf8a4664e21cc89c26224620214e336104eb565b6105be576040517f08c379a00000000000000000000000000000000000000000000000000000000081526004016105b590611853565b60405180910390fd5b806004819055507f0f4f9dbb729778e455b47da600927c51653092f52835705824cd1db65a29ed0d6004546040516105f691906114ba565b60405180910390a150565b6000801b81565b6106327f68e79a7bf1e0bc45d0a330c573bc367f9cf464fd326078812f301165fbda4ef1336104eb565b610671576040517f08c379a0000000000000000000000000000000000000000000000000000000008152600401610668906118bf565b60405180910390fd5b6005600082815260200190815260200160002060009054906101000a900460ff166106d1576040517f08c379a00000000000000000000000000000000000000000000000000000000081526004016106c890611951565b60405180910390fd5b6106d96111d8565b60405180606001604052803373ffffffffffffffffffffffffffffffffffffffff1681526020018473ffffffffffffffffffffffffffffffffffffffff1681526020018581525090506006600083815260200190815260200160002081908060018154018082558091505060019003906000526020600020906003020160009091909190915060008201518160000160006101000a81548173ffffffffffffffffffffffffffffffffffffffff021916908373ffffffffffffffffffffffffffffffffffffffff16021790555060208201518160010160006101000a81548173ffffffffffffffffffffffffffffffffffffffff021916908373ffffffffffffffffffffffffffffffffffffffff160217905550604082015181600201555050600060066000848152602001908152602001600020805490509050600454811415610996576000805b60066000868152602001908152602001600020805490508110156108975760066000868152602001908152602001600020818154811061086557610864611971565b5b9060005260206000209060030201600201548261088291906119a0565b9150808061088f906115dd565b915050610822565b5081816108a491906119f6565b90506005600085815260200190815260200160002060006101000a81549060ff02191690556006600085815260200190815260200160002060006108e89190611225565b60008590508073ffffffffffffffffffffffffffffffffffffffff1663b5d73ba483876040518363ffffffff1660e01b8152600401610928929190611a27565b600060405180830381600087803b15801561094257600080fd5b505af1158015610956573d6000803e3d6000fd5b505050507f91b860381268a473101de3379abbb70abf7ea6c9d1735cf58b9816479ff3b727828760405161098b929190611a50565b60405180910390a150505b5050505050565b6109a682610359565b6109b7816109b2610d36565b610d3e565b6109c18383610ebb565b505050565b6109f07fb19546dff01e856fb3f010c267a7b1c60363cf8a4664e21cc89c26224620214e336104eb565b610a2f576040517f08c379a0000000000000000000000000000000000000000000000000000000008152600401610a2690611853565b60405180910390fd5b610a597f68e79a7bf1e0bc45d0a330c573bc367f9cf464fd326078812f301165fbda4ef1826104eb565b15610a99576040517f08c379a0000000000000000000000000000000000000000000000000000000008152600401610a9090611ac5565b60405180910390fd5b610ac37f68e79a7bf1e0bc45d0a330c573bc367f9cf464fd326078812f301165fbda4ef182610ddb565b60036000815480929190610ad6906115dd565b91905055507fed46b7525d27f2470ee188e1d85693a6a8b59537b58701408b2f53588e63d1db81604051610b0a9190611ae5565b60405180910390a150565b7fb19546dff01e856fb3f010c267a7b1c60363cf8a4664e21cc89c26224620214e81565b610b637fb19546dff01e856fb3f010c267a7b1c60363cf8a4664e21cc89c26224620214e336104eb565b610ba2576040517f08c379a0000000000000000000000000000000000000000000000000000000008152600401610b9990611853565b60405180910390fd5b610bcc7f68e79a7bf1e0bc45d0a330c573bc367f9cf464fd326078812f301165fbda4ef1826104eb565b610c0b576040517f08c379a0000000000000000000000000000000000000000000000000000000008152600401610c02906118bf565b60405180910390fd5b600160035411610c50576040517f08c379a0000000000000000000000000000000000000000000000000000000008152600401610c4790611b4c565b60405180910390fd5b610c7a7f68e79a7bf1e0bc45d0a330c573bc367f9cf464fd326078812f301165fbda4ef18261099d565b60036000815480929190610c8d90611b6c565b91905055507f8d35b822981364028d4bb40af1edcfd97f4e186c8ccf97bafcc9adc68bd58c6d81604051610cc19190611ae5565b60405180910390a150565b60007f01ffc9a7000000000000000000000000000000000000000000000000000000007bffffffffffffffffffffffffffffffffffffffffffffffffffffffff1916827bffffffffffffffffffffffffffffffffffffffffffffffffffffffff1916149050919050565b600033905090565b610d4882826104eb565b610dd757610d6d8173ffffffffffffffffffffffffffffffffffffffff166014610f9c565b610d7b8360001c6020610f9c565b604051602001610d8c929190611ca8565b6040516020818303038152906040526040517f08c379a0000000000000000000000000000000000000000000000000000000008152600401610dce9190611d2c565b60405180910390fd5b5050565b610de582826104eb565b610eb757600160008084815260200190815260200160002060000160008373ffffffffffffffffffffffffffffffffffffffff1673ffffffffffffffffffffffffffffffffffffffff16815260200190815260200160002060006101000a81548160ff021916908315150217905550610e5c610d36565b73ffffffffffffffffffffffffffffffffffffffff168173ffffffffffffffffffffffffffffffffffffffff16837f2f8788117e7eff1d82e926ec794901d17c78024a50270940304540a733656f0d60405160405180910390a45b5050565b610ec582826104eb565b15610f9857600080600084815260200190815260200160002060000160008373ffffffffffffffffffffffffffffffffffffffff1673ffffffffffffffffffffffffffffffffffffffff16815260200190815260200160002060006101000a81548160ff021916908315150217905550610f3d610d36565b73ffffffffffffffffffffffffffffffffffffffff168173ffffffffffffffffffffffffffffffffffffffff16837ff6391f5c32d9c69d2a47ea670b442974b53935d1edc7fd64eb21e047a839171b60405160405180910390a45b5050565b606060006002836002610faf9190611d4e565b610fb991906119a0565b67ffffffffffffffff811115610fd257610fd1611da8565b5b6040519080825280601f01601f1916602001820160405280156110045781602001600182028036833780820191505090505b5090507f30000000000000000000000000000000000000000000000000000000000000008160008151811061103c5761103b611971565b5b60200101907effffffffffffffffffffffffffffffffffffffffffffffffffffffffffffff1916908160001a9053507f7800000000000000000000000000000000000000000000000000000000000000816001815181106110a05761109f611971565b5b60200101907effffffffffffffffffffffffffffffffffffffffffffffffffffffffffffff1916908160001a905350600060018460026110e09190611d4e565b6110ea91906119a0565b90505b600181111561118a577f3031323334353637383961626364656600000000000000000000000000000000600f86166010811061112c5761112b611971565b5b1a60f81b82828151811061114357611142611971565b5b60200101907effffffffffffffffffffffffffffffffffffffffffffffffffffffffffffff1916908160001a905350600485901c94508061118390611b6c565b90506110ed565b50600084146111ce576040517f08c379a00000000000000000000000000000000000000000000000000000000081526004016111c590611e23565b60405180910390fd5b8091505092915050565b6040518060600160405280600073ffffffffffffffffffffffffffffffffffffffff168152602001600073ffffffffffffffffffffffffffffffffffffffff168152602001600081525090565b50805460008255600302906000526020600020908101906112469190611249565b50565b5b808211156112b257600080820160006101000a81549073ffffffffffffffffffffffffffffffffffffffff02191690556001820160006101000a81549073ffffffffffffffffffffffffffffffffffffffff021916905560028201600090555060030161124a565b5090565b600080fd5b60007fffffffff0000000000000000000000000000000000000000000000000000000082169050919050565b6112f0816112bb565b81146112fb57600080fd5b50565b60008135905061130d816112e7565b92915050565b600060208284031215611329576113286112b6565b5b6000611337848285016112fe565b91505092915050565b60008115159050919050565b61135581611340565b82525050565b6000602082019050611370600083018461134c565b92915050565b6000819050919050565b61138981611376565b82525050565b60006020820190506113a46000830184611380565b92915050565b6113b381611376565b81146113be57600080fd5b50565b6000813590506113d0816113aa565b92915050565b6000602082840312156113ec576113eb6112b6565b5b60006113fa848285016113c1565b91505092915050565b600073ffffffffffffffffffffffffffffffffffffffff82169050919050565b600061142e82611403565b9050919050565b61143e81611423565b811461144957600080fd5b50565b60008135905061145b81611435565b92915050565b60008060408385031215611478576114776112b6565b5b6000611486858286016113c1565b92505060206114978582860161144c565b9150509250929050565b6000819050919050565b6114b4816114a1565b82525050565b60006020820190506114cf60008301846114ab565b92915050565b6114de816114a1565b81146114e957600080fd5b50565b6000813590506114fb816114d5565b92915050565b600060208284031215611517576115166112b6565b5b6000611525848285016114ec565b91505092915050565b600080600060608486031215611547576115466112b6565b5b6000611555868287016114ec565b93505060206115668682870161144c565b9250506040611577868287016114ec565b9150509250925092565b600060208284031215611597576115966112b6565b5b60006115a58482850161144c565b91505092915050565b7f4e487b7100000000000000000000000000000000000000000000000000000000600052601160045260246000fd5b60006115e8826114a1565b91507fffffffffffffffffffffffffffffffffffffffffffffffffffffffffffffffff82141561161b5761161a6115ae565b5b600182019050919050565b6000819050919050565b61164161163c826114a1565b611626565b82525050565b60008160601b9050919050565b600061165f82611647565b9050919050565b600061167182611654565b9050919050565b61168961168482611423565b611666565b82525050565b600061169b8286611630565b6020820191506116ab8285611678565b6014820191506116bb8284611630565b602082019150819050949350505050565b7f4e487b7100000000000000000000000000000000000000000000000000000000600052601260045260246000fd5b6000611706826114a1565b9150611711836114a1565b925082611721576117206116cc565b5b828206905092915050565b61173581611423565b82525050565b6000604082019050611750600083018561172c565b61175d60208301846114ab565b9392505050565b600082825260208201905092915050565b7f416363657373436f6e74726f6c3a2063616e206f6e6c792072656e6f756e636560008201527f20726f6c657320666f722073656c660000000000000000000000000000000000602082015250565b60006117d1602f83611764565b91506117dc82611775565b604082019050919050565b60006020820190508181036000830152611800816117c4565b9050919050565b7f4e6f7420616e206f776e65722100000000000000000000000000000000000000600082015250565b600061183d600d83611764565b915061184882611807565b602082019050919050565b6000602082019050818103600083015261186c81611830565b9050919050565b7f4e6f7420616e206f7261636c6521000000000000000000000000000000000000600082015250565b60006118a9600e83611764565b91506118b482611873565b602082019050919050565b600060208201905081810360008301526118d88161189c565b9050919050565b7f546869732072657175657374206973206e6f7420696e206d792070656e64696e60008201527f67206c6973742e00000000000000000000000000000000000000000000000000602082015250565b600061193b602783611764565b9150611946826118df565b604082019050919050565b6000602082019050818103600083015261196a8161192e565b9050919050565b7f4e487b7100000000000000000000000000000000000000000000000000000000600052603260045260246000fd5b60006119ab826114a1565b91506119b6836114a1565b9250827fffffffffffffffffffffffffffffffffffffffffffffffffffffffffffffffff038211156119eb576119ea6115ae565b5b828201905092915050565b6000611a01826114a1565b9150611a0c836114a1565b925082611a1c57611a1b6116cc565b5b828204905092915050565b6000604082019050611a3c60008301856114ab565b611a4960208301846114ab565b9392505050565b6000604082019050611a6560008301856114ab565b611a72602083018461172c565b9392505050565b7f416c726561647920616e206f7261636c65210000000000000000000000000000600082015250565b6000611aaf601283611764565b9150611aba82611a79565b602082019050919050565b60006020820190508181036000830152611ade81611aa2565b9050919050565b6000602082019050611afa600083018461172c565b92915050565b7f446f206e6f742072656d6f766520746865206c617374206f7261636c65210000600082015250565b6000611b36601e83611764565b9150611b4182611b00565b602082019050919050565b60006020820190508181036000830152611b6581611b29565b9050919050565b6000611b77826114a1565b91506000821415611b8b57611b8a6115ae565b5b600182039050919050565b600081905092915050565b7f416363657373436f6e74726f6c3a206163636f756e7420000000000000000000600082015250565b6000611bd7601783611b96565b9150611be282611ba1565b601782019050919050565b600081519050919050565b60005b83811015611c16578082015181840152602081019050611bfb565b83811115611c25576000848401525b50505050565b6000611c3682611bed565b611c408185611b96565b9350611c50818560208601611bf8565b80840191505092915050565b7f206973206d697373696e6720726f6c6520000000000000000000000000000000600082015250565b6000611c92601183611b96565b9150611c9d82611c5c565b601182019050919050565b6000611cb382611bca565b9150611cbf8285611c2b565b9150611cca82611c85565b9150611cd68284611c2b565b91508190509392505050565b6000601f19601f8301169050919050565b6000611cfe82611bed565b611d088185611764565b9350611d18818560208601611bf8565b611d2181611ce2565b840191505092915050565b60006020820190508181036000830152611d468184611cf3565b905092915050565b6000611d59826114a1565b9150611d64836114a1565b9250817fffffffffffffffffffffffffffffffffffffffffffffffffffffffffffffffff0483118215151615611d9d57611d9c6115ae565b5b828202905092915050565b7f4e487b7100000000000000000000000000000000000000000000000000000000600052604160045260246000fd5b7f537472696e67733a20686578206c656e67746820696e73756666696369656e74600082015250565b6000611e0d602083611764565b9150611e1882611dd7565b602082019050919050565b60006020820190508181036000830152611e3c81611e00565b905091905056fea2646970667358221220841e1443daa67f8fbd56ef17adeb098a20727ec5e316effa0818f99c129a37c164736f6c634300080c0033",
  "immutableReferences": {},
  "source": "//SPDX-License-Identifier: MIT\npragma solidity 0.8.12;\nimport \"@openzeppelin/contracts/access/AccessControl.sol\";\nimport \"./ICallerContract.sol\";\n\ncontract EthPriceOracle is AccessControl {\n    bytes32 public constant OWNER_ROLE = keccak256(\"OWNER_ROLE\");\n    bytes32 public constant ORACLE_ROLE = keccak256(\"ORACLE_ROLE\");\n\n    struct Response {\n        address oracleAddress;\n        address callerAddress;\n        uint256 ethPrice;\n    }\n\n    uint256 private randNonce = 0;\n    uint256 private modulus = 1000;\n    uint256 private numOracles = 0;\n    uint256 private THRESHOLD = 0;\n    mapping(uint256 => bool) pendingRequests;\n    mapping(uint256 => Response[]) requestIdToResponse;\n\n    event GetLatestEthPriceEvent(address callerAddress, uint256 id);\n    event SetLatestEthPriceEvent(uint256 ethPrice, address callerAddress);\n    event AddOracleEvent(address oracleAddress);\n    event RemoveOracleEvent(address oracleAddress);\n    event SetThresholdEvent(uint256 threshold);\n\n    constructor() {\n        _grantRole(OWNER_ROLE, msg.sender);\n    }\n\n    function addOracle(address _oracle) public {\n        require(hasRole(OWNER_ROLE, msg.sender), \"Not an owner!\");\n        require(!hasRole(ORACLE_ROLE, _oracle), \"Already an oracle!\");\n        _grantRole(ORACLE_ROLE, _oracle);\n        numOracles++;\n        emit AddOracleEvent(_oracle);\n    }\n\n    function removeOracle(address _oracle) public {\n        require(hasRole(OWNER_ROLE, msg.sender), \"Not an owner!\");\n        require(hasRole(ORACLE_ROLE, _oracle), \"Not an oracle!\");\n        require(numOracles > 1, \"Do not remove the last oracle!\");\n        revokeRole(ORACLE_ROLE, _oracle);\n        numOracles--;\n        emit RemoveOracleEvent(_oracle);\n    }\n\n    function setThreshold(uint256 _threshold) public {\n        require(hasRole(OWNER_ROLE, msg.sender), \"Not an owner!\");\n        THRESHOLD = _threshold;\n        emit SetThresholdEvent(THRESHOLD);\n    }\n\n    function getLatestEthPrice() public returns (uint256) {\n        randNonce++;\n        uint256 id = uint256(\n            keccak256(abi.encodePacked(block.timestamp, msg.sender, randNonce))\n        ) % modulus;\n        pendingRequests[id] = true;\n        emit GetLatestEthPriceEvent(msg.sender, id);\n        return id;\n    }\n\n    function setLatestEthPrice(\n        uint256 _ethPrice,\n        address _callerAddress,\n        uint256 _id\n    ) public {\n        require(hasRole(ORACLE_ROLE, msg.sender), \"Not an oracle!\");\n        require(\n            pendingRequests[_id],\n            \"This request is not in my pending list.\"\n        );\n        Response memory resp;\n        resp = Response(msg.sender, _callerAddress, _ethPrice);\n        requestIdToResponse[_id].push(resp);\n        uint256 numResponses = requestIdToResponse[_id].length;\n        if (numResponses == THRESHOLD) {\n            uint256 computedEthPrice = 0;\n            for (uint256 f = 0; f < requestIdToResponse[_id].length; f++) {\n                computedEthPrice += requestIdToResponse[_id][f].ethPrice;\n            }\n            computedEthPrice = computedEthPrice / numResponses;\n            delete pendingRequests[_id];\n            delete requestIdToResponse[_id];\n            ICallerContract callerContractInstance = ICallerContract(\n                _callerAddress\n            );\n            callerContractInstance.callback(computedEthPrice, _id);\n            emit SetLatestEthPriceEvent(computedEthPrice, _callerAddress);\n        }\n    }\n}\n",
  "sourcePath": "/media/pawan/Backup1/Blockchain/CryptoZombies/eth-price-oracle/oracle/contracts/EthPriceOracle.sol",
  "compiler": {
    "name": "solc",
    "version": "0.8.12+commit.f00d7308.Emscripten.clang"
  },
  "schemaVersion": "3.4.5",
  "updatedAt": "2022-03-13T08:02:41.695Z",
  "networkType": "ethereum",
  "devdoc": {
    "kind": "dev",
    "methods": {
      "getRoleAdmin(bytes32)": {
        "details": "Returns the admin role that controls `role`. See {grantRole} and {revokeRole}. To change a role's admin, use {_setRoleAdmin}."
      },
      "grantRole(bytes32,address)": {
        "details": "Grants `role` to `account`. If `account` had not been already granted `role`, emits a {RoleGranted} event. Requirements: - the caller must have ``role``'s admin role."
      },
      "hasRole(bytes32,address)": {
        "details": "Returns `true` if `account` has been granted `role`."
      },
      "renounceRole(bytes32,address)": {
        "details": "Revokes `role` from the calling account. Roles are often managed via {grantRole} and {revokeRole}: this function's purpose is to provide a mechanism for accounts to lose their privileges if they are compromised (such as when a trusted device is misplaced). If the calling account had been revoked `role`, emits a {RoleRevoked} event. Requirements: - the caller must be `account`."
      },
      "revokeRole(bytes32,address)": {
        "details": "Revokes `role` from `account`. If `account` had been granted `role`, emits a {RoleRevoked} event. Requirements: - the caller must have ``role``'s admin role."
      },
      "supportsInterface(bytes4)": {
        "details": "See {IERC165-supportsInterface}."
      }
    },
    "version": 1
  },
  "userdoc": {
    "kind": "user",
    "methods": {},
    "version": 1
  }
}